:100000000C9466000C9487000C9487000C94870075
:100010000C9487000C9487000C9487000C94870044
:100020000C9487000C9487000C9487000C94870034
:100030000C9487000C9487000C9487000C94870024
:100040000C9487000C9487000C9487000C94870014
:100050000C9487000C9487000C9487000C94870004
:100060000C9487000C940B060C9487000C9487006A
:100070000C9487000C9487000C9487000C948700E4
:100080000C9487000C9487000C9487000C948700D4
:100090000C9465010C9487000C9487000C948700E5
:1000A0000C9487000C9487000C9487000C948700B4
:1000B0000C9487000C9487000C9487000C948700A4
:1000C0000C9487000C9487000C94870011241FBEA9
:1000D000CFEFD1E2DEBFCDBF00E00CBF13E0A0E068
:1000E000B2E0E0E6F3E100E00BBF02C007900D9242
:1000F000AA3DB107D9F716E0AAEDB3E001C01D9201
:10010000AE35B107E1F70E9435060C9451060C9408
:100110000000AC0120E030E00CC08091C80085FFF9
:10012000FCCFFA01E20FF31F80818093CE002F5F96
:100130003F4F261737078CF30895DC0190915A043E
:1001400080915B04981711F480E0089590915A040F
:1001500080915B04981719F420E030E017C090916B
:100160005A0480915B04981738F480915B04909155
:100170005A04282F30E008C080915B0490915A0403
:10018000282F30E020583F4F291B3109A901621761
:1001900073070CF4AB0120E030E020C090915A04CA
:1001A00080915B04981711F49FEF12C0E0915A04FC
:1001B000F0E0E652FC4F908180915A048F3719F499
:1001C00010925A0405C080915A048F5F80935A049C
:1001D000FD01E20FF31F90832F5F3F4F2417350778
:1001E000ECF2842F089590915A0480915B04981743
:1001F00019F420E030E017C090915A0480915B041C
:10020000981738F480915B0490915A04282F30E0BD
:1002100008C080915B0490915A04282F30E0205848
:100220003F4F291B3109C9010895482F90915A0465
:1002300080915B049817D1F090915A0480915B04EF
:10024000981738F480915B0490915A04282F30E07D
:1002500008C080915B0490915A04282F30E0205808
:100260003F4F291B31092F37310591F0E0915B0495
:10027000F0E0E652FC4F408380915B048F3719F425
:1002800010925B04089580915B048F5F80935B0400
:10029000089590915A0480915B04981711F4EFEF40
:1002A00012C0E0915A04F0E0E652FC4FE0818091E8
:1002B0005A048F3719F410925A0405C080915A04D9
:1002C0008F5F80935A048E2F08951F920F920FB65E
:1002D0000F920BB60F9211242F933F934F935F937E
:1002E0006F937F938F939F93AF93BF93EF93FF93FE
:1002F0008091CE000E941501FF91EF91BF91AF91C7
:100300009F918F917F916F915F914F913F912F912D
:100310000F900BBE0F900FBE0F901F901895DF939C
:10032000CF930F920F92CDB7DEB7982F8A3099F402
:100330008DE089839A83FE0131969E012D5F3F4FA8
:100340008091C80085FFFCCF81918093CE00E21799
:10035000F307B1F706C08091C80085FFFCCF9093EA
:10036000CE0080E090E00F900F90CF91DF91089544
:1003700090915A0480915B049817D1F390915A049C
:1003800080915B04981738F480915B0490915A0433
:10039000282F30E008C080915B0490915A04282FE8
:1003A00030E020583F4F291B3109232B09F390914E
:1003B0005A0480915B04981711F4EFEF15C0E09197
:1003C0005A04F0E0E652FC4FE08180915A048F37E6
:1003D00019F410925A0405C080915A048F5F8093DB
:1003E0005A04ED3009F4EAE08E2F90E008950E945F
:1003F0006F079B01AC0160E074E284EF99E40E9416
:10040000D9060E9441076150704022E42093C80041
:1004100028E92093C90026E02093CA002FEF2093FB
:10042000CE0010925A0410925B04272F332727FD29
:100430003A952093CD006093CC007298739A8FE820
:1004400091E068EB71E00E94890690935D048093CF
:100450005C0408958091D1039091D2030895809314
:1004600060040895809362040895FC01E25AFB4FF2
:100470006583089580936104089520E030E09091B1
:100480000205982311F021E030E0C9010895809120
:10049000010590E00895FC01E250FB4F858190E05A
:1004A0000895362F20E0280F391FC9010895282FFD
:1004B00030E0C90108958070892F90E008950F936E
:1004C0001F93CF93DF938091460590914705892B29
:1004D00009F4BBC0809160048E3F09F4ACC08091E8
:1004E000D1039091D203892B29F41092450586E01F
:1004F000809344058091450590E06091440570E04B
:10050000681B790B82509B4F0E94DE059091450538
:10051000980F9093450580914405981720F40E9408
:10052000E804019771F070914505472F50E0DA011A
:1005300011978A010250104060E0ED01C250DB4F7C
:1005400018C080914505882309F072C086E090E0CC
:1005500074C0F901E250FB4F80818F3F19F4818113
:100560008F3F61F02017310719F488818F3F31F0F8
:100570006F5F262F30E02A173B075CF36623A1F05C
:1005800090E0421B530B08C0E250FB4FDF01A20F6B
:10059000B31F8C9180839F5FE92FF0E0E417F5078C
:1005A0009CF3761B70934505209145058091440589
:1005B000281730F190916004809100059817C1F5DB
:1005C000609101056C5F60934405261790F4822FBB
:1005D00090E070E0681B790B82509B4F0E94DE0513
:1005E00090914505980F9093450580914405981783
:1005F00038F080910105A82FB0E020E090E00CC019
:1006000085E090E09093D2038093D1031EC0E25026
:10061000FB4F8281980F2F5FE22FF0E0AE17BF07EC
:10062000B4F7A250BB4F909513968C91891719F08F
:1006300087E090E002C081E090E09093D203809345
:10064000D1031092470510924605DF91CF911F917B
:100650000F9108951F93809146059091470501974A
:1006600009F460C081E090E09093470580934605CF
:1006700080916104893940F490916204892F8150FE
:10068000863028F0933819F084E090E031C08FEF85
:1006900080935E0480935F0480916104A82FB0E092
:1006A00020E090E005C0E25AFB4F8281980F2F5F57
:1006B000E22FF0E0AE17BF07B4F7A25ABB4F9095F8
:1006C00013969C938091D1039091D2030697029741
:1006D00010F40E94AE04109161041C5F8EE594E05A
:1006E000612F70E00E94B304181759F082E090E087
:1006F0009093D2038093D103109247051092460540
:1007000011C080916204823029F48091640490E0E9
:10071000069602C086E090E00E94D7041092D203B1
:100720001092D1031F9108950E942A038091D10352
:100730009091D203892B41F40E945F028091D103F2
:100740009091D2030597C1F30895282F8091460513
:1007500090914705892B99F42093600483E080935E
:10076000620460936304CA014093640480709093B0
:10077000650485E0809361040E9494030895FFCF8F
:10078000282F8091460590914705892BB9F4209335
:10079000600482E080936204609363048093640445
:1007A00084E0809361040E9494033091040520E06A
:1007B00080910305280F311DC9010895FFCF282F0F
:1007C0008091460590914705892B79F42093600428
:1007D00083E080936204609363044093640484E044
:1007E000809361040E9494030895FFCF282F809185
:1007F000460590914705892B99F42093600482E087
:10080000809362046093630481E08093640484E0D5
:10081000809361040E9494038091030590E0089501
:10082000FFCF282F8091460590914705892B59F4D9
:100830002093600481E08093620482E080936104ED
:100840000E9494030895FFCF0E94AD0408950F9372
:100850001F938C016F5F7F4F882777FD8095982FBE
:100860000E946F079B01AC0160E074E284EF99E4A1
:100870000E94D906AB01BC01C8010E945404892B17
:1008800019F420E030E00CC081E090E09093D203B6
:100890008093D103109247051092460521E030E085
:1008A000C9011F910F910895EF92FF920F931F932B
:1008B0007A018B0182E48093C00088E98093C100B3
:1008C00086E08093C20060E074E284EF99E4A801BE
:1008D00097010E94D9060E944107615070407093B1
:1008E000C5006093C40060E074E284E799E4A80165
:1008F00097010E94D90620E030E040E451E40E94D4
:100900002308609352067093530680935406909385
:10091000550620915206309153064091540650914D
:10092000550660E070E08AE793E40E94D9060E94D1
:10093000410770935106609350067298739A8FEF37
:100940008093C600109248061092490681E090E01C
:100950001F910F91FF90EF9008950895809149069F
:10096000809348060895AC01F8947398729A20E039
:1009700030E011C08091C00085FFFCCF8091C000A5
:1009800080648093C000FA01E20FF31F808180939E
:10099000C6002F5F3F4F2617370764F38091C000D2
:1009A00086FFFCCF7298739A7894C90108951092CB
:1009B0005906109258062091500630915106265F34
:1009C0003F4F280F391F309357062093560608953E
:1009D000AF92BF92CF92DF92EF92FF920F931F934D
:1009E00080915806909159060196909359068093EC
:1009F00058062091580630915906809156069091DC
:100A000057068217930718F421E030E074C0A090D5
:100A10005206B0905306C0905406D0905506C601B9
:100A2000B5012BEA3AEA4AEA50E40E9423087B0126
:100A30008C0120E030E040E85FE30E94D506882387
:100A400014F461E054C0C801B70120E030E04FE782
:100A500053E40E941F0818160CF045C0C601B501EA
:100A600020E030E04AE754E40E94D9065B016C01C3
:100A700020E030E04AE755E40E9423087B018C0126
:100A800020E030E040E85FE30E94D50688231CF4B4
:100A900061E070E024C0C801B70120E03FEF4FE7FC
:100AA00057E40E941F081816B4F4C601B50120E0EF
:100AB00030E040E251E40E9423080E94410780E9AF
:100AC00091E005C0FC013197F1F76150704061156C
:100AD0007105C1F70EC0C801B7010E944107CB01E3
:100AE0000197F1F706C0C801B7010E9441076A9556
:100AF000F1F720E030E0C9011F910F91FF90EF90D6
:100B0000DF90CF90BF90AF9008959091480680916C
:100B10004906981719F420E030E017C09091480674
:100B200080914906981738F48091490690914806BB
:100B3000282F30E008C08091490690914806282F60
:100B400030E020503F4F291B3109C90108951F9300
:100B5000182F0E9485058F3F910591F0E09149067D
:100B6000F0E0E85BFA4F1083809149068F3F19F45B
:100B70001092490605C0809149068F5F809349060F
:100B80001F9108959091480680914906981711F495
:100B9000EFEF12C0E0914806F0E0E85BFA4FE08129
:100BA000809148068F3F19F41092480605C0809145
:100BB00048068F5F809348068E2F0895EF92FF922C
:100BC0000F931F93CF93DF937C01EB019091480625
:100BD00080914906981719F400E010E014C00E94B3
:100BE00085058C01C817D9070CF48E01C0E0D0E050
:100BF00007C00E94C205F701EC0FFD1F80832196FC
:100C0000C017D107B4F3C801DF91CF911F910F91A5
:100C1000FF90EF9008951F920F920FB60F920BB6B0
:100C20000F9211242F933F934F935F936F937F9372
:100C30008F939F93AF93BF93EF93FF938091C600E1
:100C40000E94A705FF91EF91BF91AF919F918F9166
:100C50007F916F915F914F913F912F910F900BBEBC
:100C60000F900FBE0F901F90189560E071EE80E01E
:100C700090E00E94F70180E090E061E070E00E9467
:100C80002704789481EB93E00E9454068EEF90E065
:100C900060E270E048EE53E00E94A50380E090E03F
:100CA0000895F8940C94AE090F931F93CF93DF939C
:100CB0008C01E0914C06F0914D06838181FF21C0AB
:100CC000C0E0D0E00DC0E0914C06F0914D062085CB
:100CD0003185BF01F9011995892B11F0CFEFDFEFB5
:100CE000F80181918F01882371F7E0914C06F09112
:100CF0004D06208531858AE0BF01F9011995892BC0
:100D000011F0CFEFDFEFCE01DF91CF911F910F9167
:100D100008950F931F93CF93DF938C01EB010097FE
:100D200031F46115710519F420E030E038C081E03C
:100D300090E06EE070E00E948608FC019C01009744
:100D400071F180E88383209771F0D387C28781E8AF
:100D5000838380914A0690914B06892B21F4F0936E
:100D60004B06E0934A0601151105C9F0118700876B
:100D700083818260838380914C0690914D06892BFC
:100D800071F4F0934D06E0934C0680914E069091DD
:100D90004F06892B21F4F0934F06E0934E06C901CC
:100DA000DF91CF911F910F910895D4D008F481E085
:100DB00008950CD00AC102D140F0F9D030F021F4EE
:100DC0005F3F19F0EBC0511134C1EEC00FD198F361
:100DD0009923C9F35523B1F3951B550BBB27AA27BC
:100DE00062177307840738F09F5F5F4F220F331F2E
:100DF000441FAA1FA9F333D00E2E3AF0E0E830D0FA
:100E000091505040E695001CCAF729D0FE2F27D0FC
:100E1000660F771F881FBB1F261737074807AB07CA
:100E2000B0E809F0BB0B802DBF01FF2793585F4F3F
:100E30002AF09E3F510568F0B1C0FBC05F3FECF364
:100E4000983EDCF3869577956795B795F7959F5F04
:100E5000C9F7880F911D9695879597F90895E1E058
:100E6000660F771F881FBB1F621773078407BA07B7
:100E700020F0621B730B840BBA0BEE1F88F7E09512
:100E80000895BCD088F09F5790F0B92F9927B7519B
:100E9000A0F0D1F0660F771F881F991F1AF0BA953E
:100EA000C9F712C0B13081F0C3D0B1E00895C0C01D
:100EB000672F782F8827B85F39F0B93FCCF3869534
:100EC00077956795B395D9F73EF490958095709591
:100ED00061957F4F8F4F9F4F0895E89409C097FB0E
:100EE0003EF490958095709561957F4F8F4F9F4F01
:100EF0009923A9F0F92F96E9BB279395F695879545
:100F000077956795B795F111F8CFFAF4BB0F11F407
:100F100060FF1BC06F5F7F4F8F4F9F4F16C08823AE
:100F200011F096E911C0772321F09EE8872F762FE4
:100F300005C0662371F096E8862F70E060E02AF025
:100F40009A95660F771F881FDAF7880F9695879511
:100F500097F90895990F0008550FAA0BE0E8FEEFE6
:100F600016161706E807F907C0F012161306E4076D
:100F7000F50798F0621B730B840B950B39F40A2666
:100F800061F0232B242B252B21F408950A2609F444
:100F9000A140A6958FEF811D811D089597F99F6748
:100FA00080E870E060E008959FEF80EC08950024F1
:100FB0000A941616170618060906089500240A94BE
:100FC00012161306140605060895092E0394000C44
:100FD00011F4882352F0BB0F40F4BF2B11F460FFD3
:100FE00004C06F5F7F4F8F4F9F4F089557FD9058FC
:100FF000440F551F59F05F3F71F04795880F97FBDD
:10100000991F61F09F3F79F0879508951216130696
:101010001406551FF2CF4695F1DF08C016161706C5
:101020001806991FF1CF86957105610508940895FA
:10103000E894BB2766277727CB0197F908958ADFC5
:1010400008F48FEF08950BD0C0CFB1DF28F0B6DFE2
:1010500018F0952309F0A2CFA7CF1124EACFC6DF5D
:10106000A0F3959FD1F3950F50E0551F629FF001BB
:10107000729FBB27F00DB11D639FAA27F00DB11D14
:10108000AA1F649F6627B00DA11D661F829F22279D
:10109000B00DA11D621F739FB00DA11D621F839F24
:1010A000A00D611D221F749F3327A00D611D231FFA
:1010B000849F600D211D822F762F6A2F11249F5748
:1010C00050408AF0E1F088234AF0EE0FFF1FBB1F6B
:1010D000661F771F881F91505040A9F79E3F51050A
:1010E00070F05CCFA6CF5F3FECF3983EDCF38695C3
:1010F00077956795B795F795E7959F5FC1F7FE2BB5
:10110000880F911D9695879597F908950F931F93D2
:10111000CF93DF93689F8001699F100D789F100D1A
:101120001124C8010E94A208EC01009729F060E098
:1011300070E0A8010E94A709CE01DF91CF911F9115
:101140000F910895CF93DF93BC018230910510F485
:1011500062E070E0A0915C06B0915D06ED01E0E018
:10116000F0E040E050E021C0888199818617970720
:1011700069F48A819B81309719F09383828304C03C
:1011800090935D0680935C06FE0134C06817790772
:1011900038F44115510519F08417950708F4AC018E
:1011A000FE018A819B819C01E9012097E9F64115A6
:1011B0005105A9F1CA01861B970B049708F4BA01DF
:1011C000E0E0F0E02AC08D919C911197841795077B
:1011D000F9F46417750781F412968D919C91139719
:1011E000309719F09383828304C090935D068093B7
:1011F0005C06FD0132964FC0CA01861B970BFD01AC
:10120000E80FF91F6193719302978D939C9343C0EC
:10121000FD01828193819C01D9011097A1F68091F3
:101220005A0690915B06892B41F48091D5039091E9
:10123000D60390935B0680935A064091D703509152
:10124000D8034115510541F44DB75EB78091D303E2
:101250009091D403481B590B20915A0630915B069C
:1012600024173507B0F4CA01821B930B8617970722
:1012700080F0AB014E5F5F4F8417950750F0420F2F
:10128000531F50935B0640935A06F9016193719383
:1012900002C0E0E0F0E0CF01DF91CF910895CF935D
:1012A000DF93009709F450C0EC0122971B821A8249
:1012B000A0915C06B0915D06109709F140E050E006
:1012C000AC17BD0708F1BB83AA83FE0121913191C0
:1012D000E20FF31FAE17BF0779F48D919C91119720
:1012E000280F391F2E5F3F4F3983288312968D9127
:1012F0009C9113979B838A834115510571F4D09378
:101300005D06C0935C0620C012968D919C91139748
:10131000AD01009711F0DC01D3CFFA01D383C28372
:1013200021913191E20FF31FCE17DF0769F4888115
:101330009981280F391F2E5F3F4FFA013183208397
:101340008A819B8193838283DF91CF910895DC0111
:1013500001C06D9341505040E0F70895F894FFCFDD
:10136000496E70757420766F6C7461676520657264
:10137000726F722100416E676C65206C696D6974D3
:10138000206572726F7221004F76657268656174B4
:10139000206572726F7221004F7574206F66207223
:1013A000616E6765206572726F72210043686563C4
:1013B0006B73756D206572726F7221004F76657266
:1013C0006C6F6164206572726F722100496E737474
:1013D00072756374696F6E20636F646520657272E5
:1013E0006F722100434F4D4D5F54584641494C3A6E
:1013F000204661696C6564207472616E736D6974F6
:1014000020696E737472756374696F6E20706163A6
:101410006B65742100434F4D4D5F54584552524FF8
:10142000523A20496E636F727265637420696E73FD
:101430007472756374696F6E207061636B6574217B
:1014400000434F4D4D5F52584641494C3A2046614A
:10145000696C6564206765742073746174757320AA
:101460007061636B65742066726F6D206465766968
:1014700063652100434F4D4D5F52585741495449D0
:101480004E473A204E6F7720726563696576696EC4
:101490006720737461747573207061636B65742168
:1014A00000434F4D4D5F525854494D454F55543AA6
:1014B000205468657265206973206E6F20737461B3
:1014C000747573207061636B65742100434F4D4DDB
:1014D0005F5258434F52525550543A20496E636FF1
:1014E00072726563742073746174757320706163C4
:1014F0006B657421005468697320697320756E6B85
:101500006E6F776E206572726F7220636F646521F3
:10151000000A0A53796E63577269746520657861B1
:101520006D706C6520666F7220434D2D3730300A28
:0A15300000010020005E060000002C
:00000001FF
